:020000040800F2
:10000000002100209D0100083B1B00080F1A00087A
:10001000391B0008230300087D370008000000009A
:10002000000000000000000000000000C91C0008E3
:10003000F103000800000000C71C0008CB1C0008EA
:10004000B7010008B7010008B7010008B7010008B0
:10005000B7010008B7010008B7010008B7010008A0
:10006000B7010008B7010008B7010008B701000890
:1000700069030008B7010008B7010008B7010008CC
:10008000B7010008B7010008B7010008B701000870
:10009000B7010008B7010008B7010008B701000860
:1000A000B7010008B7010008B7010008B701000850
:1000B000B7010008B7010008B7010008B701000840
:1000C000B7010008B7010008B7010008B701000830
:1000D000B7010008B7010008B7010008B701000820
:1000E000B7010008B7010008B7010008B701000810
:1000F000B7010008B7010008B7010008B701000800
:10010000B7010008B7010008B7010008B7010008EF
:10011000B7010008B7010008B7010008B7010008DF
:10012000B7010008B7010008B7010008B7010008CF
:10013000B7010008B7010008B7010008B7010008BF
:10014000B7010008B7010008B70100083D1B00080F
:10015000B7010008B7010008B7010008B70100089F
:10016000B7010008B7010008B7010008B70100088F
:10017000B7010008B7010008B7010008000000003F
:10018000B7010008B7010008DFF80CD000F08CF8C8
:1001900000480047593800080021002006488047E1
:1001A00006480047FEE7FEE7FEE7FEE7FEE7FEE75C
:1001B000FEE7FEE7FEE7FEE7551D0008890100089F
:1001C0002DE9F05F0546002092469B46884606468C
:1001D000814640241BE0284641464746224600F01F
:1001E00053F853465A46C01A914110D31146184647
:1001F000224600F03AF82D1A67EB01084F462246D6
:100200000120002100F031F817EB00094E41201EBB
:10021000A4F10104DFDC484631462A464346BDE8E6
:10022000F09F40EA01039B0703D009E008C9121FB1
:1002300008C0042AFAD203E011F8013B00F8013BA0
:10024000521EF9D27047D2B201E000F8012B491ECC
:10025000FBD270470022F6E710B513460A46044663
:100260001946FFF7F0FF204610BD202A04DB203A94
:1002700000FA02F1002070479140C2F1200320FAF9
:1002800003F3194390407047202A04DB203A21FAF7
:1002900002F00021704721FA02F3D040C2F120029F
:1002A0009140084319467047064C074D06E0E06848
:1002B00040F0010394E8070098471034AC42F6D3AD
:1002C000FFF766FF6C3900088C39000870B58C1890
:1002D00010F8015B15F0070301D110F8013B2A115A
:1002E00006D110F8012B03E010F8016B01F8016B47
:1002F0005B1EF9D12B0705D40023521E0DD401F843
:10030000013BFAE710F8013BCB1A921C03E013F80B
:10031000015B01F8015B521EF9D5A142D8D3002040
:1003200070BDFEE7002070470020704710B5002226
:100330000449054801F0B4FF0449034801F0AAFF4D
:10034000002010BDF412002050020020F40A00200A
:1003500010B50146034801F09DFF024801F07EFF01
:10036000002010BD50020020014800F067B80000D6
:10037000F001002001681823CAB2103AB2FBF3F270
:10038000054B6FF30901032A9B5CC36500D9091D66
:1003900081650846704700004C39000810B50146D9
:1003A00000208B698A6A4FF0C07453B1B3F5005FC7
:1003B00015D072B1012A0CD0022A0AD0032A09D121
:1003C00004E01AB1012A06D0022A03D1C96AC90180
:1003D00000D5012010BDC96AA142FAD010BD002A83
:1003E000F7D0012AF2D0022AF3D0032AF3D010BDAD
:1003F00070477047002200F001B8000030B50E4B86
:10040000054601205C7A002C14D1587A1C54587A85
:1004100003EB800045605D7A03F108002A54587AA6
:10042000421C5A72303008703A2048702F20887071
:10043000CC70002030BD0000F41A00202DE9F843F4
:1004400004464FF00009CDF8009063484FF4165170
:10045000A56D0068B0FBF1F72E6894F85C100820D9
:1004600000FA01F131420FD021680A6852070BD51A
:100470000A6822F004020A6094F85C108840A860C0
:10048000606D40F00100606594F85C104FF0010869
:1004900008FA01F0304208D021684969090604D5FC
:1004A000A860606D40F00200606594F85C10042064
:1004B0008840304208D021680968890704D5A860BF
:1004C000606D40F00400606594F85C101020884076
:1004D000304218D021680968090714D5A86020683F
:1004E0000168490304D50068000308D5A16C07E042
:1004F0000168C90503D4016821F008010160216C7D
:1005000009B12046884794F85C102020884030428A
:1005100031D021680968C9062DD5A86094F8350046
:1005200005282068016806D0490347D50068000304
:100530001DD4616C1CE021F0160101602068416946
:1005400021F080014161206C08B9A06C20B12068C5
:10055000016821F00801016094F85C103F20884098
:10056000A86084F8349084F83580216D1FE0E16B39
:1005700009B120468847606D00282BD0606DC00708
:1005800014D0052084F835002068016821F00101AD
:1005900001600098401C0090B84203D820680068B1
:1005A000C007F6D184F8349084F83580E16C0029D6
:1005B00010D001B02046BDE8F04308470168C905E6
:1005C000D5D4016821F01001016084F8349084F8DA
:1005D0003580CCE7BDE8F8838C0000202DE9F041A0
:1005E000044600F055F906465CB1002584F8345005
:1005F000022084F835002068016821F001010160C3
:100600000DE00120BDE8F08100F042F9801B0528D3
:1006100005D920206065032084F83500F2E72068C2
:100620000068C007F0D12268116820480140D4E971
:1006300001031843D4E9033633431843636918436D
:10064000A3691843E3691843236A18430843616A9E
:10065000042903D1D4E90B1319430843106020681F
:100660004069666A20F0070130460E4301270428DE
:100670000CD1A06A0643E06A40B12046FFF78EFE27
:1006800020B14020606584F83570BAE72068466183
:100690002046FFF76FFE94F85C203F219140816077
:1006A000656584F835700020ACE700003F8010F0ED
:1006B00070B5044600F0ECF80546601C02D0044812
:1006C0000078044400F0E4F8401BA042FAD370BD67
:1006D000800000202DE9F84FDFF87CB100224FF0B8
:1006E00001084FF0030A4FF00F090BF1040E00BF91
:1006F0000B6808FA02F42340A3426ED14D68022D24
:1007000001D0122D0ED1D50800EB850CDCF820505D
:100710005607F70E09FA07F6B5430E69BE402E4399
:10072000CCF82060066855000F790AFA05FC07F03E
:10073000030726EA0C06AF40374307604E68012ED8
:1007400005D0022E03D0112E01D0122E0ED18668B4
:10075000CF6826EA0C06AF40374387604668A64359
:100760000C79C4F30014944034434460C6688C6828
:1007700026EA0C06AC403443C4604C68E40065D5FE
:10078000364C256845F480452560246822F0030531
:1007900004F480440094324C2E19D6F8084895078A
:1007A0002F0F09FA07F5AC432E4DA84201D10025C1
:1007B00024E02D4DA84201D101251FE02B4DA84278
:1007C00001D102251AE02A4DA84201D1032515E0E6
:1007D000284DA84202D1042510E037E0264DA8425A
:1007E00001D105250AE0254DA84201D1062505E0E5
:1007F000234DA84201D1072500E00825BD4025432F
:10080000C6F80858DBF800405D464E689C43F60386
:1008100000D51C432C60DEF8004075464E689C43B2
:10082000B60300D51C432C600B4D08352C684E6870
:100830009C43F60200D51C432C60074D0C352C68F8
:100840004E689C43B60200D51C432C60521C102AF3
:10085000FFF44EAFBDE8F88F003C01404438024041
:100860000030014000000240000402400008024045
:10087000000C024000100240001402400018024028
:10088000001C02400AB1816170470904FBE70000C7
:10089000014880687047000080000020024881689D
:1008A0000278114481607047800000200B4810B529
:1008B000016841F400710160016841F480610160E8
:1008C000016841F480710160032000F06FF800209E
:1008D00000F006F800F024F8002010BD003C0240B3
:1008E00070B50D4D04464FF47A712878B1FBF0F0E5
:1008F0000A490968B1FBF0F000F094FF48B9102CE8
:1009000007D200222146501E00F030F800206C6013
:1009100070BD012070BD0000800000208C00002010
:100920000A4808B5016841F480410160006800F49C
:10093000804000900548001F016841F0805101602F
:10094000006800F08050009008BD0000443802406C
:10095000002809DB00F01F020121914040098000BE
:1009600000F1E020C0F8001170470000F0B40E4B19
:100970001B680C46C3F30223C3F10705042D00D9FD
:100980000425191D072901D2002300E0DB1E0126E2
:1009900006FA05F1491E214099409E40761E1640F8
:1009A0003143F0BC02F0F4BE0CED00E0064900F06B
:1009B000070208684FF6FF03184040EA0220034A86
:1009C00010430860704700000CED00E00000FA05DD
:1009D00070470068416200207047F0B50368586AAC
:1009E00039B19C6A4FF4827600EB144400204D1E0E
:1009F0000AE040EA024098620FE006EB8007DF5908
:100A0000401C04EB1744C0B2A842F6D344EA0240AB
:100A10004FF4807202EB810158500020F0BDD0F8F5
:100A2000040401F0D2BEC1EBC10200EB8202D0F897
:100A30000404926C01F025BEC1EBC10200EB8202FE
:100A4000D0F80404D2F8082201F07EBED0F80404E5
:100A500001F0BDBE70B504460B0601F00F00C0EBFF
:100A6000C00104EB81014FF001024FF0000503D5F6
:100A700081F83D203C3103E081F8FD5101F5FE7124
:100A8000087094F8BC03012808D084F8BC232068BF
:100A900002F014FA84F8BC53002070BD022070BD2F
:100AA00070B5044601F00F006268904201D9012040
:100AB00070BD0B0601F00F01C1EBC10104EB810118
:100AC0004FF001024FF0000503D581F83D203C3185
:100AD00003E081F8FD5101F5FE718D70087094F806
:100AE000BC03012808D084F8BC23206802F0C2FBB4
:100AF00084F8BC53002070BD022070BD01F00F01CE
:100B0000C1EBC10100EB8100D0F8140270472DE960
:100B1000F04104460F0601F00F00C0EBC00104EBEA
:100B200081014FF001064FF0000503D581F83D60CB
:100B30003C3103E081F8FD5101F5FE7108708A60D7
:100B4000CB704A7802B1C880022B00D10D7194F8A5
:100B5000BC03012809D084F8BC63206802F0FEF8C9
:100B6000284684F8BC53BDE8F0810220FBE770B54D
:100B70000C4601F00F05C5EBC50100EB8101C1F882
:100B80001032C1F808220023C1F8143281F8FD3177
:100B900081F8FC51036901F5FE71012B00D10A6156
:100BA0002207027C006803D002F0BCFB002070BD6D
:100BB00002F0A8FAFAE770B504460D4601F00F00FE
:100BC0006168884201D9012070BD29064FF00006F6
:100BD0004FF0010207D5C0EBC00104EB810181F8A1
:100BE0003D203C3107E0C5EBC50104EB810181F8F4
:100BF000FD6101F5FE718A70087094F8BC0301284C
:100C000007D084F8BC23206802F060FB280702D0DC
:100C100007E0022070BD217C04F57172206802F0AB
:100C2000FDFA84F8BC63002070BD70B50C4601F07D
:100C30000F05C5EBC50100EB81010B658A6400233C
:100C40004B65012381F83D3001F83C5F0369012BBE
:100C500000D10A612207027C006803D002F062FB27
:100C6000002070BD02F04EFAFAE700002DE9FC5FAB
:100C700005680446284602F07EFC00287ED12068E4
:100C800002F0A5FC002879D0206802F0A0FC8007C3
:100C900004D52068416901F002014161206802F039
:100CA00096FC010304F571704FF0010A4FF0080B38
:100CB000009075D50026206802F068FC0746DFF832
:100CC00008946BE0F80767D0F1B2206802F077FC77
:100CD0008046C00707D005EB4611C1F808AB314686
:100CE000204600F031FF5FEA087032D52068016CC1
:100CF00000EB46100191D0F8081B2269012A019AE5
:100D00000FD0F24B9A4214D1090403D54FF400419D
:100D1000C0F8081B204600F0C9FA206901280FD04E
:100D200013E04A4505D9090403D54FF40041C0F842
:100D3000081B204600F0BAFA01984845EDD804E0B7
:100D400020680121009A02F069FA05EB4611C1F80A
:100D500008BB5FEAC86004D505EB46111020C1F856
:100D6000080B5FEA88600ED52069012804D120684D
:100D70000121009A02F052FA202100E0A1E105EBE6
:100D80004610C0F8081B5FEA884005D505EB461001
:100D90004FF40051C0F8081B7F08761C002F91D13A
:100DA000206802F014FC40034FF000095FD5206872
:100DB00002F0E5FB0746002657E0F80753D0F1B2F2
:100DC000206802F0EAFB8046C00726D006F00F023A
:100DD0000AFA02F0D5F834288243C5F8342805EB26
:100DE0004610C0F808A92069012807D1C6EBC60043
:100DF00004EB8000D0E9112111448164F1B2204656
:100E0000FFF711FE2069012807D136B9206D20B9FE
:100E100020680121009A02F001FA5FEA087003D508
:100E200005EB4611C1F808B95FEAC86004D505EBC7
:100E300046111020C1F808095FEA486004D505EBA7
:100E400046104021C0F808195FEA887004D505EB08
:100E500046100221C0F808195FEA086003D5314640
:100E6000204600F0DFFE7F08761C002FA5D1206809
:100E700002F0ADFB002811DAD5F8040820F00100DB
:100E8000C5F8040894F8F40301282BD0204600F09C
:100E9000F1F92068416901F000414161206802F0E8
:100EA00096FB00050BD5D5F80808C00702D02046F0
:100EB00000F024FA2068416901F400614161206872
:100EC00002F085FBC00461D5D5F8040820F00101CB
:100ED000C5F804181021206802F02EFB00214FF6FF
:100EE0007F321AE084F8F49300212046FFF770FD6A
:100EF000CFE700BF05EB4110C0F80829D0F8003952
:100F000023F40013C0F80039C0F8082BD0F8003BD8
:100F100023F40013C0F8003B491C60688842E9D8FC
:100F2000D5F81C0840F00111C5F81C18206B0028EA
:100F300028460DD0D0F8840840F00B00C5F884088E
:100F4000D5F8440840F00B012846C5F844180DE0D8
:100F5000D0F8140842F22B010843C5F81408D5F85C
:100F6000100840F00B012846C5F81018D0F800080A
:100F700020F4FE61C5F80018217C2068009A02F078
:100F80004DF92068416901F480514161206802F007
:100F90001EFB800415D5206801F020FF206802F0B8
:100FA000DDFAE06000F05AFA0146227B206802F088
:100FB00049FB204600F048F92068416901F40051DE
:100FC0004161206802F003FBC00634D520688169C6
:100FD00021F0100181612F6A07F00F00C0EBC00003
:100FE00004EB8006C7F3434006F5FE76022802D0E4
:100FF000062811D01AE047F6F070074216D0C7F362
:101000000A1217462846F16802F0E5FAF0683844FB
:10101000F060B069384408E008222846009902F0E0
:10102000DAFAB069C7F30A110844B0612168886927
:1010300040F010008861206802F0C9FA000707D567
:10104000204600F01BF92168486900F0080048615B
:10105000206802F0BCFAC00208D50021204600F04A
:1010600037F82168486900F480104861206802F070
:10107000AEFA800208D50021204600F02DF8216844
:10108000486900F400104861206802F0A0FA4000AE
:1010900007D52046FFF7C3FC2068416901F0804175
:1010A0004161206802F093FA40070AD5206845683C
:1010B000680702D52046FFF7C9FC2068416829432C
:1010C0004160BDE8FC9F00000A30544F0A31544F84
:1010D000D0F8040401F0CABBD0F8040401F0C8BB86
:1010E0002DE9F0418AB0040005D094F8BD032668CC
:1010F000002520B108E001200AB0BDE8F08184F8A5
:10110000BC53204600F05EF8032084F8BD03F06B6A
:10111000C00500D42561206801F0EEFF04F1100144
:10112000282288466846FFF77CF894E80F0001F013
:101130006FFE0226C8BB0021206802F05AFA002088
:1011400001270EE0C0EBC00104EB810181F83D7086
:1011500001F83C0FC880CD708D60CD60401CC0B2DE
:101160004D6161688142EDD8002011E0C0EBC00103
:1011700004EB810181F8FD5181F8FC0181F8FF51F8
:10118000C1F80452C1F80852401CC0B2C1F8105254
:1011900061688142EAD8282241466846FFF741F853
:1011A00094E80F0001F0E2FE10B184F8BD63A2E7FD
:1011B00084F8385084F8BD73206801F0CBFE00201D
:1011C0009AE7000010B586B0044614216846FFF780
:1011D00041F82068B0F1A04F2FD1194800210268D2
:1011E00042F001020260006800F0010005904FF437
:1011F000C05000900220CDE90101032003900A2095
:10120000049069460F48FFF765FA0D48001D016814
:1012100041F0800101600A481430016841F48041C6
:1012200001600068002200F48040059011464320D0
:10123000FFF79CFB4320FFF78BFB06B010BD0000BF
:10124000303802400000024070B50446C0680125F5
:1012500070B1022801D0FFF7CCF82946D4F8040475
:1012600001F057FBD4F80404BDE8704001F017BB4F
:101270000025F2E7D0F8040401F039BBD0F80404EB
:1012800001F03BBB10B5044690F8BC0301280BD01D
:10129000012084F8BC0384F83810206802F0C0F9FB
:1012A000002084F8BC0310BD022010BDD0F8042437
:1012B00000F57171104601F038BB10B504460068A6
:1012C00094F8BC13012906D0012184F8BC13A16A4B
:1012D000012902D008E0022010BDA169012903D034
:1012E000816B41F480318163206801F027FE206822
:1012F00002F00CF9002084F8BC0310BD10B50446C0
:10130000D0F8040401F050FB2068D0F8001E41F032
:101310000101C0F8001E206A002804D002480168BC
:1013200041F00601016010BD10ED00E02DE9F0472D
:101330000E46050065D0DFF81481D8F80000F7B23A
:1013400000F00F00B04207D288F80070D8F8000013
:1013500000F00F00B04254D128683D4C810712D5EF
:10136000400703D5206840F4E0502060287800074B
:1013700003D5206840F4604020602068A96820F010
:10138000F000084320602878C0072DD030496868F5
:101390000839012812D0022813D0032811D0096877
:1013A000890700292DDA216821F00301014321601A
:1013B000FFF76EFA814641F2883A0EE00968890328
:1013C000EFE709688901ECE7FFF762FAA0EB090192
:1013D000514502D90320BDE8F0872068696800F014
:1013E0000C00B0EB810FEFD1D8F80010404601F0AF
:1013F0000F01B14207D90770006800F00F00B0423A
:1014000001D00120E7E72878400705D52068E96882
:1014100020F4E050084320602878000706D52068B3
:10142000296920F4604040EAC100206000F03CF8E7
:101430002168084AC1F30311515CC840064908609D
:101440000020FFF74DFA0020C5E70000003C0240F5
:1014500008380240543900088C0000200148006818
:10146000704700008C0000200448054900680968A6
:10147000044AC1F38221515CC84070478C000020AF
:1014800008380240643900080448054900680968C2
:10149000044AC1F34231515CC84070478C000020BF
:1014A0000838024064390008154810B5006810F08B
:1014B0000C02144813D04110042A0FD0082A0ED170
:1014C0000F4C241F2268236802F03F025B0207D5FD
:1014D0002068C0F38810A0FB010106E0084610BD9B
:1014E0002168C1F38811A1FB00010023FEF768FE0B
:1014F0002168C1F30141491C4900B0FBF1F010BD66
:10150000083802400024F4002DE9F84F050076D099
:101510002878DFF8F8B2BE4CC00749D0DBF80010DD
:101520005846C1F38101012908D00068C0F3810049
:1015300002280AD1201D0068400206D520688003D9
:1015400036D568680028E2D032E06868B0F5803FA0
:1015500010D0B0F5A02F206810D020F4803020608B
:10156000206820F4802020606868A0B1FFF790F91F
:1015700006460CE0206840F48030F4E740F4802018
:101580002060F7E7FFF784F9801B642873D8206890
:101590008003F7D50CE0FFF77BF9064605E000BFB6
:1015A000FFF776F9801B6428F0D820688003F7D411
:1015B0002878DFF8608280074FF000093ED5DBF81D
:1015C0000010584611F00C0F09D00068C0F38100DC
:1015D00002280BD18D48001F0068400206D4206805
:1015E000800715D5E868012809D111E0E868B8B18D
:1015F0000120C8F80000FFF74BF9064605E002E1BC
:10160000FFF746F9801B0228C0D820688007F7D56D
:101610002068296920F0F80040EAC10020600DE050
:10162000C8F80090FFF734F9064604E0FFF730F9F8
:10163000801B02281FD820688007F7D4287800076D
:1016400022D5724E744869696C3671B1012101600E
:10165000FFF71EF9074604E0FFF71AF9C01B02283E
:1016600009D830688007F7D50EE0C0F80090FFF782
:101670000FF9074605E083E0FFF70AF9C01B0228CF
:101680007ED830688007F7D42878400768D5DFF81F
:101690007CA100270AF1380ADAF80000C0000BD458
:1016A000DAF8001041F08051CAF80010DAF80000B2
:1016B000012700F080500090584E3068C00510D4CB
:1016C000306840F480703060FFF7E2F8009005E089
:1016D000FFF7DEF80099401A022851D83068C0059B
:1016E000F6D54A4EA868683601280FD0052830681C
:1016F00010D020F001003060306820F0040030602D
:10170000A868B8B1FFF7C4F800900FE0306840F067
:101710000100F4E740F004003060F7E7FFF7B8F8A5
:101720000099411A41F28830814264D830688007BC
:10173000F4D50EE0FFF7ACF8009007E0FFF7A8F84B
:101740000099411A41F28830814254D830688007AC
:10175000F4D42FB1DAF8001021F08051CAF800104B
:10176000A869C0B3DBF80010C1F3810102294AD097
:101770000228484607D0C8F86000FFF789F800E063
:1017800039E005463AE04746C8F86000FFF780F8C0
:10179000064604E0FFF77CF8801B02282BD820685F
:1017A0008001F7D4D5E907010843A96A1C4A490812
:1017B00002EB01416A6A41EA8211084395F82C1054
:1017C00040EA01611148001F016001203866FFF7FF
:1017D0005FF8054605E014E0FFF75AF8401B0228C1
:1017E00009D820688001F7D50BE000BFFFF750F85B
:1017F000401B022802D90320BDE8F88F2068800131
:10180000F4D40020F8E70120F6E700000838024091
:101810000038024000004742800E474200700040FE
:101820000000FFFF10B5401EB0F1807F01D3012002
:1018300010BD4FF0E02460610F21601701F0A8FF98
:101840000020A06107202061002010BD70B50400B9
:1018500004D094F83900002510B106E0012070BDD5
:1018600084F83850204600F023F8242084F839000A
:101870002068C16821F40051C160204600F094FA4C
:101880002068016921F4904101612068416921F0DB
:101890002A0141612068C16841F40051C160E563DB
:1018A000202084F8390084F83A00002070BD000040
:1018B00070B586B0064614216846FEF7CBFC204979
:1018C0003068884239D11F480025016841F48021E1
:1018D0000160006800F4802005901A481038016803
:1018E00041F0020101600068694600F002000590C5
:1018F0004FF44060009002200190012002900320EC
:101900000390072004901048FEF7E4FE104C0F48A7
:1019100020604FF00060C4E901054014C4E90350A1
:101920006561A561E561256220466562FEF756FEA8
:1019300008B1FEF75EFD7463A66306B070BD0000DB
:101940000048004040380240000402402860024045
:10195000F00100202DE9F843044690F839001F46B5
:1019600016460D46202850D1A5B19EB194F83800F6
:1019700001284AD0012084F838004FF00008C4F84C
:101980003C80212084F83900FEF782FFA68481463E
:10199000E68426E00120BDE8F883E08C401EE08468
:1019A000A0684B46B0F5805F4FF000024FF0800119
:1019B0002046009703D000F04DFBE8B90DE000F0A1
:1019C00049FBC8B928882168C0F30800486020692D
:1019D00008B16D1C05E0AD1C03E0216815F8010B92
:1019E0004860E08C0028D8D14B4600224021204698
:1019F000009700F02FFB08B10320CCE7202084F8EB
:101A0000390084F838800020C5E70220C3E7FEE7EC
:101A1000F0B500230A24302537261F4611E000BF09
:101A2000B4EB107F02D905EB107C01E006EB107CD3
:101A300001F813C001EB430C00015B1C8CF8017032
:101A4000DBB29342ECD3F0BD10B504490448FEF775
:101A5000D1FC0249491E087010BD00001900002089
:101A60000400002070B586B014216846FEF7F2FB32
:101A70001A480024016841F020010160016801F06A
:101A800020010591016841F080010160016801F0C9
:101A900080010591016841F002010160016801F0D7
:101AA00002010591016841F00101016000680C4EDE
:101AB00000F001004FF4E065059001222946304610
:101AC000FEF7E0FE01200095CDE9010469463046AD
:101AD0000394FEF7FFFD06B070BD000030380240F1
:101AE0000014024010B500220F49104800F0A2FD7A
:101AF00008B1FEF77EFC0E490C4800F07BFF08B1F0
:101B0000FEF777FC0B49094800F0BCFB08B1FEF773
:101B100070FC064800F0C4FF002803D0BDE8104068
:101B2000FEF767BC10BD000020000020500200201E
:101B30006C01002070000020FEE770470148FFF7AD
:101B400095B80000EC0400202DE9F041044600683F
:101B50000E46016C00EB4615D5F8080B27692023CB
:101B60004FF40042012F08D02C4FB9424FD101044D
:101B700049D500BFC5F8082B4DE0DFF8A4C05FEAE7
:101B8000007E04F5717711D5614503D9000401D5B4
:101B9000C5F8082B2046FFF789FB3A46012120684B
:101BA00001F03CFB0820C5F8080B34E05FEA806ECA
:101BB00002D5C5F8083B2EE010F0280F2BD1614567
:101BC00001D90004D6D4C6EBC60004EB8000D5F8DA
:101BD000102BD0F80412C2F312028A1AC0F8142291
:101BE000D0F808221144C0F80812F1B22046FEF7DE
:101BF00023FF86B9D4F8100268B93A46012120685B
:101C000001F00CFB07E0800601D5C5F8083BF1B2F6
:101C10002046FEF711FF0020BDE8F0810A31544F45
:101C20000A30544F2DE9F84F0E46C1EBC60100EBC8
:101C3000810481460568D4E914103C34884202D9F5
:101C40000120BDE8F88F081AA168814200D2084639
:101C5000C01C870805EB46181BE000BFA0EB010A7B
:101C6000A068504500D282460AF10300870899F81F
:101C7000100000901FFA8AF3F2B22846E16801F0E2
:101C800055FDE16801EB0A00E060A16901EB0A0083
:101C9000A061D8F8180980B2B84205D3D4E905018B
:101CA000814201D20028D9D1D4E90501884208D85F
:101CB00006F00F0101208840D5F834188143C5F89B
:101CC00034180020BDE770477047FEF7E7BD0000FD
:101CD00030B593B030216846FEF7BCFA14210CA849
:101CE000FEF7B8FA19480025016841F080510160FB
:101CF000006800F0805011901548016841F480415F
:101D000001600068022400F48040119001200090DE
:101D1000000401908001CDE9064004200890A8202D
:101D2000CDE9090407200B906846FFF7EDFB0CA9ED
:101D30000F2081E831004FF4A0500F90E002109086
:101D400005210CA8FFF7F2FA13B030BD403802406D
:101D5000007000401048016841F4700101600F48B4
:101D6000016841F0010101600C4A00210832116054
:101D700002680B4B1A400260031D0A4A1A6002688F
:101D800022F48022026005480C30016002495806A6
:101D9000803908607047000088ED00E0003802409C
:101DA000FFFFF6FE103000242DE9F04104460068E4
:101DB0000169E26821F44051114301612169A06881
:101DC000E26908436169114322680843D16849F216
:101DD0000C6399430143D16020684169A26921F4F1
:101DE000407111434161E2696425B2F5004F9748A3
:101DF000974922684FF032083FD08A4201D0824290
:101E00007CD1FFF741FB00EBC00101EB00106168E2
:101E10008900B0FBF1F6FFF737FB00EBC00101EBE7
:101E2000001061688900B0FBF1F0B0FBF5F06FF0D5
:101E30001801484306EB800108EB0110B0FBF5F0F8
:101E400000F0F006FFF720FB00EBC00101EB0010F3
:101E500061688900B0FBF1F0B0FBF5F006EB00160D
:101E6000FFF712FB00EBC00101EB00106168890075
:101E7000B0FBF1F7FFF708FBD2E08A4201D08242C3
:101E80003DD1FFF701FB00EBC00101EB00106168E1
:101E90004900B0FBF1F0B0FBF5F00601FFF7F4FAF2
:101EA00000EBC00101EB001061684900B0FBF1F7E5
:101EB000FFF7EAFA00EBC00101EB0010616849008E
:101EC000B0FBF1F0B0FBF5F06FF01801484307EB01
:101ED000800108EBC100B0FBF5F000F0F80006EB64
:101EE0004006FFF7D1FA00EBC00101EB001061687A
:101EF0004900B0FBF1F7FFF7C7FA3CE055E0FFF708
:101F0000B3FA00EBC00101EB001061684900B0FBBF
:101F1000F1F0B0FBF5F00601FFF7A6FA00EBC00107
:101F200001EB001061684900B0FBF1F7FFF79CFA84
:101F300000EBC00101EB001061684900B0FBF1F05B
:101F4000B0FBF5F06FF01801484307EB800108EB98
:101F5000C100B0FBF5F000F0F80006EB4006FFF71B
:101F600083FA00EBC00101EB001061684900B0FB8F
:101F7000F1F7FFF779FA00EBC00101EB001061689F
:101F80004900B0FBF1F0B0FBF5F06FF018014843E9
:101F900007EB800108EBC100B0FBF5F000F0070093
:101FA000216830448860BDE8F081FFF75DFA00EBFE
:101FB000C00101EB001061688900B0FBF1F6FFF78A
:101FC00053FA00EBC00101EB001061688900B0FB1F
:101FD000F1F0B0FBF5F06FF01801484306EB80011B
:101FE00008EB0110B0FBF5F000F0F006FFF73CFA4B
:101FF00000EBC00101EB001061688900B0FBF1F05B
:10200000B0FBF5F006EB0016FFF72EFA00EBC0016F
:1020100001EB001061688900B0FBF1F7FFF724FACB
:1020200000EBC00101EB001061688900B0FBF1F02A
:10203000B0FBF5F06FF01801484307EB800108EBA7
:102040000110B0FBF5F000F00F00A9E7001401400B
:10205000001001402DE9F041984617460E4604460F
:10206000069D1DE0681C1BD02DB1FEF711FCA0EBF6
:102070000800A84214D92068C16821F4D071C16059
:102080002068416921F001014161202084F8390074
:1020900084F83A00002084F838000320BDE8F0817D
:1020A0002068006836EA000004D00020B842D9D089
:1020B0000020F3E70120F9E72DE9F041D0F898324C
:1020C000D0F89022DAB101EB810400EB8404002502
:1020D000E6694EB1C1EBC10703EB87035B6CB6FB4E
:1020E000F3F703FB176323B1C2F814520020BDE8D5
:1020F000F08100231A46E56100F05FFCF6E702205C
:10210000F5E770B50546D0F8904200F06BFBC4F8D7
:102110000C02D5F8900248B1D5F89412D4F8040214
:10212000CA6804F503719047002070BD022070BD9D
:1021300070B504460026812100F09AFA002501219D
:102140002046E56200F094FA82212046C4F85851F6
:1021500000F08EFA2564D4F8900248B1D4F89402C5
:1021600004F5247440688047206801F04DFB256029
:10217000304670BD10B5D0E9A44159B194F80002C1
:10218000FF2807D08B6894F8012221469847FF204A
:1021900084F80002002010BD0A2101800048704729
:1021A000940000204321018000487047E400002093
:1021B0004321018000487047A00000204321018096
:1021C00000487047280100202DE9F0410446002610
:1021D000007C4FF40077012590B340230222812137
:1021E000204600F047FB4023E56202220121204601
:1021F00000F040FB0823032282212046C4F85851F6
:1022000000F038FB4FF40770256401F069FBC4F857
:102210009002F8B10546D4F8940200688047002087
:10222000C5F81402C5F81802207CD5F8042298B12C
:1022300040230121204600F029FB3046BDE8F08113
:10224000FFE73B4602228121204600F013FB3B467C
:10225000E562CAE70126F0E73B46EAE710B5D0F8A9
:10226000901269B1027C002AD1F8042205D04023E3
:10227000012100F00BFB002010BD4FF40073F7E7C5
:10228000022010BD02460220002902D00020C2F820
:1022900094127047D0F89002C0F8041200207047E2
:1022A000D0F89002C0F81022C0F808120020704741
:1022B0002DE9FC410546D0F8907200208DF8000011
:1022C000ADF80400064608780C4610F0600121D0F5
:1022D00020293BD1E288AAB10006607807D5D5F85D
:1022E00094128B6839469847E288394626E087F889
:1022F0000002A07987F80102E2883946284600F0FA
:102300004FF828E0D5F89412607800228B682146B7
:10231000984720E0607820B10A2809D00B2815D111
:1023200010E095F87402032810D1022201A905E0FB
:1023300095F87402032809D101226946284600F065
:1023400049F808E095F87402032804D0214628468D
:1023500000F01BF802263046BDE8FC8110B5D0F82D
:102360008C2252689047002010BD134610B50A46D3
:10237000002100F08BFA002010BD134610B50A466C
:10238000002100F01AFB002010BD10B5044680218A
:1023900000F0F8FA2046BDE81040002100F0F2BA43
:1023A00010B50323C0F84821C0F86C32C0F84C21A6
:1023B00013460A46002100F069FA002010BD10B54E
:1023C00005210023C0F86C121A46194600F05EFA87
:1023D000002010BD10B50223C261C0F86C32026249
:1023E00013460A46002100F0E8FA002010BD10B59F
:1023F00004210023C0F86C121A46194600F0DDFAD9
:10240000002010BD10B50A46024903A000F0E2F812
:10241000004810BDF408002043444320436F6E661B
:1024200069670000122008800048704740000020C3
:1024300010B50A46024903A000F0CCF8004810BDD0
:10244000F408002043444320496E7465726661635A
:102450006500000004200880004870473C00002010
:1024600010B50A46024903A000F0B4F8004810BDB8
:10247000F408002053544D6963726F656C65637492
:10248000726F6E696373000010B50A46024903A0BB
:1024900000F0A0F8004810BDF408002053544D335C
:1024A00032205669727475616C20436F6D506F7283
:1024B0007400000010B51A2008800A480168001D49
:1024C0000468001D0068081809D008220649FFF7B3
:1024D0009FFA0549042210312046FFF799FA024875
:1024E000801E10BD107AFF1F56000020F8B504466C
:1024F00048880D46010A08294BD2DFE801F04A045A
:1025000009174A4A4048D4F88812207C0A6832E009
:10251000207C02260028D4F88C0205D0C16A6846C7
:1025200088470146467041E0816AF8E7C0B2062854
:102530002FD2DFE800F003080D12171CD4F8881220
:10254000207C4A6817E0D4F88812207C8A6812E060
:10255000D4F88812207CCA680DE0D4F88812207C58
:102560000A6908E0D4F88812207C4A6903E0D4F8AC
:102570008812207C8A6969469047014616E0207CD3
:1025800038B9D4F88C02416B68468847F5E7207C5F
:1025900020B129462046FFF7F8FEF8BDD4F88C029A
:1025A000016B68468847014607204870BDF8000067
:1025B00048B1EA8852B1824200D90246ADF8002003
:1025C0002046FFF707FFE8880028E6D12046FFF7FE
:1025D0000EFFF8BD70B5002300281ED0044600256C
:1025E00002E06D1CEDB2641C2678002EF9D10224A5
:1025F00004EB450414801278CA545B1C0322CA54AD
:1026000000245B1C06E0CA545B1CDAB28C54521CDA
:10261000D3B2401C0278002AF5D170BD01004FF002
:10262000000004D0012901D0022901D00220704706
:102630000120704710B580B1D0F88C3213B100235F
:10264000C0F88C3209B1C0F88812012180F87412E8
:10265000027000F0CBF8002010BD022010BD10B5B4
:10266000D0F89802FEF71CFABDE81040FFF7D6BF7D
:1026700010B5D0F89802FEF7EDF9BDE81040FFF76D
:10268000CDBF2DE9F0411746044651B1D4F88C0274
:1026900042691AB194F87402032851D00220BDE8AF
:1026A000F081D4F86C32002504F11400022B03D021
:1026B000042B3AD0C3B33CE0D0E903639E4207D970
:1026C000F11AC1608AB239462046FFF756FE12E081
:1026D0008068B0FBF3F103FB110199B9984211D363
:1026E000D4F8701288420DD2002211462046FFF71E
:1026F00044FEC4F8705200231A461946204600F0E2
:10270000C5F816E0D4F88C02C16829B194F87402B7
:10271000032801D1204688478021204600F032F965
:102720002046FFF74CFE04E0FFE78021204600F042
:1027300029F994F87802012804D184F8785201E04C
:10274000204690470020AAE770B51546044649B1D7
:10275000D4F88C0282691AB194F87402032830D03C
:10276000022070BDD4F86C1204F5A070032902D0C9
:1027700005291ED027E0D0E903218A420BD9531A3C
:10278000C3600846834200D303469AB229462046D6
:10279000FFF7EBFD17E0D4F88C02016929B194F83A
:1027A0007402032801D1204688472046FFF71FFE08
:1027B00009E000200146C4F86C02204600F0E2F86F
:1027C00001E020469047002070BD0020704710B502
:1027D000012180F87412D0F88C2201795268904758
:1027E000002010BDD0F89802FEF788B910B5017826
:1027F00039BB15490222C1F80404C0F898124FF001
:10280000A0400860042048600020C1E90320C1E91D
:10281000062008624862C86208630846FEF760FC4A
:1028200008B1FDF7E6FD80210748FEF7D2F8402207
:1028300000210548FEF7D1F8802201210248FEF769
:10284000CCF8002010BD0000EC0400200A0601F0C6
:102850007F01D0F89802C1EBC10100EB810002D5E5
:1028600090F83E00704790F8FE01704700207047D6
:102870000020704710B51C461346D0F89802224637
:10288000FEF745F9BDE81040FFF7C8BE10B5D0F817
:102890009802FEF76CF9BDE81040FFF7BFBE70B5B7
:1028A0000022044640231146FFF7E4FF402601259D
:1028B000C4F850613346002280212046C4F84451B8
:1028C000FFF7D8FF6662A56184F874520020C4F84F
:1028D0006C026060C4F87C02D4F8900228B1D4F88D
:1028E0008C020021426820469047002070BD90F87D
:1028F000751280F874120020704710B590F87412A9
:10290000032904D1D0F88C12C96901B1884700208D
:1029100010BD01740020704710B5D0F89802FEF782
:10292000B1FCBDE81040FFF779BE70B5044600F574
:102930002070054600F04AF80120C4F86C02B4F893
:102940008602C4F8700294F8800210F01F010AD0C9
:1029500001290DD0022910D000F08001204600F09E
:1029600011F8002070BD2946204600F09EF8F8E7D7
:102970002946204600F0CAF9F3E72946204600F030
:102980001DF9EEE710B5D0F89802FEF714F9BDE88E
:102990001040FFF743BE10B5D0F89802FEF78DFC4B
:1029A000BDE81040FFF73ABE90F8741280F8751237
:1029B000042180F874120020704710B5D0F89802F6
:1029C000FEF733F9BDE81040FFF728BE0A78027021
:1029D0004A7842708A78CB7802EB032242800A79E7
:1029E0004B7902EB032282808A79C97902EB0121BB
:1029F000C18070470246002011B1C2F88C127047A6
:102A00000220704710B5D0F88C2202241AB1126847
:102A1000904700B90024204610BD000070B50E4656
:102A20001E4D897804462970012931D894F8740222
:102A300002280BD003280FD031462046FFF7A5FC13
:102A400029782046BDE87040FFF788BCD9B1032043
:102A5000616084F8740209E071B16068884212D044
:102A6000C1B22046FFF77AFC297861602046FFF763
:102A7000C9FF02280CD006E0022084F87402204628
:102A80006160FFF76BFC2046BDE87040FFF7AFBC0C
:102A900031462046BDE87040FFF777BC900000202B
:102AA00010B5FFF778FF002010BD2DE9F0410A783E
:102AB000002612F0600208D0202A01D0402A70D1EE
:102AC000D0F88C22926890476DE04B780022012567
:102AD0000A2B66D2DFE803F0405D6557650805659F
:102AE0002C29FFF703FD5EE004468888D8B9C88822
:102AF000C8B94888802816D200F07F0794F874027D
:102B0000032810D084F8767239462046FFF704FF78
:102B10002046FFF76CFC1FB1022084F8740242E0EB
:102B200084F874523FE020463BE0FFF777FF3AE03D
:102B3000CB88012B35D190F87432012B04D0022BB5
:102B400002D0032B2DD104E08260012200F10801A4
:102B500016E00122011D13E090F87422012A03D02F
:102B6000022A01D0032A1CD1CA88022A19D1C560C1
:102B7000D0F87C1209B10321C160022200F10C01DE
:102B8000FFF728FC0FE0498801290CD1C0F87C52DE
:102B900011E090F87432012B08D0022B06D0032BE1
:102BA00004D0FFF7F2FB3046BDE8F08149880129E7
:102BB000F9D1C0F87C22FFF71AFCF4E72DE9F041C7
:102BC0000A46044610780027097910F060030AD0FD
:102BD000202B01D0402B50D1D4F88C0211468368B1
:102BE000204698478FE0C0F34110012806D0507866
:102BF000D0B301282AD003283FD107E0D4F88C02B3
:102C0000114683682046BDE8F041184794F87402E5
:102C1000022802D0032872D10AE071B380296ED055
:102C20002046FFF7AFFE80212046FFF7ABFE6AE0AB
:102C3000508838B931B1802904D0D08810B92046E5
:102C4000FFF7A0FE2046FFF7D2FB5CE094F8740289
:102C50000228E2D0032852D1508898BB4806F1D010
:102C60002046FFF7FCFCEDE7FFE794F8740200262E
:102C7000022803D0032842D112E040E009B18029A4
:102C80003DD1080601F07F0000EB800004EB8001DD
:102C900001D5143101E001F5A07102220E602AE095
:102CA000080601F00F0000EB800004EB80000AD55D
:102CB000806920B301F07F0000EB800004EB800509
:102CC00014350BE01FE0D0F84401C0B101F07F00E3
:102CD00000EB800004EB800505F5A07541B180296B
:102CE00006D02046FFF7B2FD10B10120286000E0B9
:102CF0002E60022229462046FFF76CFB03E01146B6
:102D00002046FFF742FB3846BDE8F08170B5054626
:102D100008780C4610F0600003D0202801D040282D
:102D200016D195F87402012803D0022801D0032897
:102D30000ED1207901280BD8D5F88C02826828465C
:102D40009047E188014306D12846FFF750FB02E097
:102D50002846FFF71AFB002070BD000070B50A7806
:102D6000012302F00F054E78AB401B4CD0F81C58E5
:102D7000012E17D045EA0343C0F81C3800EB42107F
:102D8000D0F8002B12040BD4D0F8002B0B89C97893
:102D9000C3F30A031A4344EA81410A43C0F8002BF3
:102DA000002070BD9BB21D43C0F81C5800EB4210C0
:102DB000D0F800391B04F3D4D0F800390D89C97854
:102DC000C5F30A0589042B4341EA82510B4323438F
:102DD000C0F80039E4E7000000800010D0F80019C6
:102DE0006FF30A01C0F80019D0F80818C1F34101C7
:102DF000022905D1D0F8001941F00301C0F80019EB
:102E0000D0F8041841F48071C0F80418002070470D
:102E100070B5044606990A9E049D0D98012916D0A6
:102E2000E06840F04000E060204600F02BF8A16B25
:102E30001EB321F48031A163012D07D1A16841F0B7
:102E40000601A160A16841F02001A16070BDA16BE5
:102E500021F48031A163E168094A1140E160E16831
:102E600021F44011E160012803D1E06840F48010B2
:102E7000E060204600F006F8DEE741F48031DAE752
:102E8000BFFFBDFF01220C4902E0521C8A420BD851
:102E90000369002BF9DA026942F0010202610122A2
:102EA00004E0521C8A4201D9032070470369DB0702
:102EB000F7D1002070470000400D030030B50B78BB
:102EC0004D78012203F00F0402FA04F4012DD0F82A
:102ED0003C5817D025EA0444C0F83C48D0F81C48B8
:102EE000097801F00F018A4024EA0241C0F81C1859
:102EF00000EB4310D0F8001B0E4A1140C0F8001B35
:102F0000002030BDA4B2A543C0F83C58D0F81C48FE
:102F1000097801F00F018A4091B28C43C0F81C4837
:102F200000EB4310D0F80019034A1140C0F8001913
:102F3000E6E700000078F3EF007833EC10B5D0F846
:102F4000041821F00201C0F804180320FDF7B0FBBB
:102F5000002010BD10B5D0F8041841F00201C0F8EF
:102F600004180320FDF7A4FB002010BD2DE9F04F4D
:102F70000025DDE90BCB0E460446DDF84090099FA5
:102F80002846294604EB8002C2F80411401C0F2891
:102F9000F8D3B9F1000F204618D0006820F40012D1
:102FA0002260A06B40F40022A26308468846C4F861
:102FB000000ED4F800182046C4F80018BCF1010F28
:102FC00010D0D0F8001841F0030110E0806B40F4FD
:102FD0000012A263A06B20F40022A263A06B20F475
:102FE0008022E1E7D0F800180BB141F00101C0F8F0
:102FF0000018102100F0A0FA00B10125204600F0D1
:103000008BFA00B101254046C4F81088C4F8148832
:10301000C4F81C8800214FF000634FF090484FF631
:103020007F3A14E004EB4112D2F800C9BCF1000F62
:1030300006DA11B1C2F8008904E0C4F8003901E0F1
:10304000C2F80009C2F81009C2F808A9491C8E424A
:10305000E8D8002115E000BF04EB4112D2F800CB04
:10306000BCF1000F06DA11B1C2F8008B04E0C4F81D
:10307000003B01E0C2F8000BC2F8100BC2F808AB2D
:10308000491C8E42E8D8D4F8101821F480722146E9
:10309000C4F81028012F08D1134AC1F83028D1F8FC
:1030A0003018124A1143C4F83018A0616FF0804004
:1030B00060611FB9A06940F01000A061A0690C49CF
:1030C0000843A061BBF1000F03D0A06940F00800E5
:1030D000A061B9F1010F03D1A06906490843A061BD
:1030E0002846BDE8F08F00000001800003000100C9
:1030F00000383C8004000040816821F001018160BB
:103100000020704770B50D784E78434CEBB200EB61
:103110004313012E1FD0D3F8100B6FF31200C3F826
:10312000100BD3F8100B2040C3F8100B486908B1FE
:1031300088684861D3F8100B40F40020C3F8100BE6
:10314000D3F8100B8C68C4F312042043C3F8100B9F
:10315000012A55D058E04E69002ED3F8106932D0BC
:103160006FF31206C3F81069D3F810692640C3F84C
:1031700010694E698C68A64200D94C61D3F8104999
:1031800044F40024C3F81049D3F810494E69C6F33B
:1031900012063443C3F81049012A22D000EB45122D
:1031A000D2F8003943F00443C2F800394A6932B317
:1031B000D0F83428097801F00F03012199400A431F
:1031C000C0F8342826E02640C3F81069D3F8104927
:1031D00044F40024C3F81049D3F810496FF31204E3
:1031E000D8E7096919B100EB4512C2F8141900EBD0
:1031F0004510D0F8001941F00441C0F8001909E069
:10320000C86808B1C3F8140BD3F8000B40F00440B1
:10321000C3F8000B002070BDFFFF07E010B5036C82
:10322000134CA34203D9D0F8003B002B1EDB002334
:10323000C0F8103BD0F8103B43F40023C0F8103B1B
:10324000D0F8103B43F01803C0F8103BD0F8103B07
:1032500043F0C043C0F8103B012907D1C0F8142B3C
:10326000D0F8001B41F08021C0F8001B002010BDE9
:103270000A30544F4A780B78012A00EB43100BD0E8
:10328000D0F8002B22F40012C0F8002BC9780329D3
:1032900014D0022912D017E0D0F8002922F400122D
:1032A000C0F80029C978032901D002290CD1D0F82F
:1032B000001941F08051C0F8001905E0D0F8001B5A
:1032C00041F08051C0F8001B002070470A784B780D
:1032D000D1B200EB4110012B12D0D0F8001B002915
:1032E00006DB2AB1D0F8001B21F08041C0F8001B9A
:1032F000D0F8001B41F40011C0F8001B00207047FB
:10330000D0F80019002906DB2AB1D0F8001921F005
:103310008041C0F80019D0F8001941F40011C0F83C
:103320000019EBE7F8B50C784F78774DE3B26FF002
:10333000604600EB4313012F26D0D3F8104B6FF3F8
:103340001204C3F8104BD3F8104B2C40C3F8104BA9
:103350004C69002C74D08D682C44641EB4FBF5F4C9
:10336000D3F8105BA4B206EAC4463543C3F8105B39
:10337000D3F8105B8E686643C6F312042543C3F886
:10338000105B012A71D0A6E04F691FB3D3F8107902
:103390006FF31207C3F81079D3F810792F40C3F8F0
:1033A00010794F698D682F447F1EB7FBF5F506EA4B
:1033B000C545D3F810693543C3F81059D3F81059EF
:1033C0004E69C6F312063543C3F81059CD78012D66
:1033D00010D01BE0D3F810692E40C3F81069D3F861
:1033E000105945F40025C3F81059D3F810596FF35C
:1033F000120509E0D3F8105925F0C045C3F810595B
:10340000D3F8105945F00055C3F81059012A18D0C7
:1034100000EB4413D3F8004944F00444C3F80049D6
:10342000CC78012C2FD04A6962B3D0F834280978BF
:1034300001F00F03012199400A43C0F8342860E0ED
:1034400036E00A691AB100EB4413C3F81429C978AD
:1034500001290FD1D0F80818C90500EB4411D1F8A3
:10346000002903D442F0005202E030E042F08052E2
:10347000C1F8002900EB4410D0F8001941F00441D4
:10348000C0F800193DE0D0F80848E405D3F8004939
:1034900002D444F0005401E044F08054C3F80049E1
:1034A00000928A8A93B20A78C96800F03FF928E04E
:1034B000D3F8104B8D68C5F312052C43C3F8104B9D
:1034C000D3F8104B44F40024C3F8104B59E7CA68F2
:1034D0000AB1C3F8142BC97801290CD1D0F8080817
:1034E000C005D3F8000B02D440F0005001E040F0DA
:1034F0008050C3F8000BD3F8000B40F00440C3F831
:10350000000B0020F8BD0000FFFF07E0816841F0DC
:103510000101816000207047002110220261054AEC
:10352000491C914201D9032070470369DB06F7D497
:1035300000207047400D03000022202343EA811140
:1035400001610549521C8A4201D903207047036971
:103550009B06F7D400207047400D0300D0F8080800
:1035600010F0060004D0022803D0062801D00F2056
:10357000704702207047406900F001007047D0F8A2
:103580001818D0F81C08084080B27047D0F81818F6
:10359000D0F81C080840000C704710B5D0F810385F
:1035A000D0F8342801F00F0400EB4110E24002F0A3
:1035B0000102D0F8080943EAC212104010BD00EB26
:1035C0004111D1F8081BD0F8140808407047416930
:1035D000806908407047D21C10B59308002200F59E
:1035E000805002E00468521C10C19A42FAD3084687
:1035F00010BD10B5C26822F0C042C260012902D0DD
:1036000029B1012010BDC16841F0005102E0C1683C
:1036100041F08041C1603220FDF74AF8002010BD22
:10362000D0F8002822F4FE62C0F80028D0F8002864
:103630004FF4FE6303EA01110A43C0F8002800209A
:1036400070470000022A3ED1264A274B0A449A427C
:1036500001D20F2138E0254A254B0A449A4201D273
:103660000E2131E0234A244B0A449A4201D20D2113
:103670002AE0224A224B0A449A4201D20C2123E03A
:10368000204A214B0A449A4201D20B211CE01F4AD6
:103690001F4B0A449A4201D20A2115E01D4A1E4BD3
:1036A0000A449A420FD31D4A1D4B0A449A4201D242
:1036B000082109E01B4A11441B4A914201D207210B
:1036C00002E0062100E00921C26822F47052C260C3
:1036D000C2684FF4705303EA81210A43C26000209C
:1036E00070470000405327FF00350C00401E1BFFB1
:1036F00040420F0000DC0BFF804F1200808CF9FE6F
:1037000020D6130060B6E5FE60E3160000D3CEFEBF
:1037100040771B00C05BB3FEC091210000CA91FE40
:1037200020753800E05459FEE09C410010B5029C21
:1037300064B9DB1C9C0800EB0230002300F58050CC
:1037400002E004C902605B1CA342FAD3002010BD52
:10375000024801210170007870470000000000203D
:103760000120704700207047024801210170007855
:10377000704700000000002000207047FEE70000B6
:10378000014A024900F023B8F1370008A4010020E3
:103790000907090E002804DB00F1E02080F800147E
:1037A000704700F00F0000F1E02080F8141D704712
:1037B00002E008C8121F08C1002AFAD170477047FA
:1037C000002001E001C1121F002AFBD170472DE942
:1037D000F04116460F460446002503E03946B0473F
:1037E000641C6D1C20780028F8D12846BDE8F081C3
:1037F00013B54FF6FF73012269460248FEF7AAF897
:1038000000981CBDB001002010B5002821D0114B3C
:103810000022001F196803E0814203D80A46496864
:103820000029F9D152B11368841A9C4204D100686E
:1038300018441060104602E0506000E0186039B192
:1038400002680B1A934203D10B681A44026049685C
:10385000416010BDA801002008B5FDF727F8FEF76C
:1038600037FAFEF7FFF817480024016841F4001109
:1038700001600068224600F40010009021460C20F0
:10388000FDF774F80C20FDF763F8FEF7DDF8FEF79E
:1038900029F90E480C4901604FF4E131C0E90114E7
:1038A0000C21C460C0E904418461C461FDF7CEFF0E
:1038B0004FF47A742046FCF7FBFE05A0FFF760FF8B
:1038C000F8E700003038024000480040B001002016
:1038D0000A0D687474703A474F474F0A0D00000094
:1038E000F0B50B30154D20F007010024144A0FE00D
:1038F00003688B420BD38B4205D95E1A4318476885
:10390000C3E9006700E04368136002C004E0021DE1
:1039100010680028ECD12046002802D1286808B1A0
:103920000020F0BD064A07481060074A121A22F02C
:103930000702C0E9002401202860D7E7AC0100207D
:10394000A8010020041B0020001D00200006101606
:103950000006101600000000000000000102030431
:103960000607080900000000010203048C39000862
:1039700000000020B0010000CC0200085C3A000802
:10398000B0010020501F0000C03700083201135161
:10399000371B0869041A65041A79041A6104811333
:1039A00025241B0855041A61041A89041AB5041A3F
:1039B00005041A3104170403090412011402020257
:1039C0001640830440571D0201020351031A1A03D3
:1039D000132D031B0829041A25041A510429808277
:1039E000105324F4130A0632022A401C1C09024315
:1039F000571125C03209041B01020B197E16100154
:103A000005240110090104240202052406170107F8
:103A1000058203081C1009048D320A1D07050102E6
:103A2000432C070581070938442A40072A810711DA
:103A30002B0907440A3B044413C9211B0831041312
:103A4000B12242081A750C13B9201B080308C11AC9
:0C3A5000B1101AA5041ABD04DA991C007C
:040000050800018965
:00000001FF
